{
  "contractName": "DocumentStorage",
  "abi": [
    {
      "constant": true,
      "inputs": [
        {
          "name": "",
          "type": "uint256"
        }
      ],
      "name": "Employees",
      "outputs": [
        {
          "name": "id",
          "type": "uint256"
        },
        {
          "name": "ipfshash",
          "type": "string"
        }
      ],
      "payable": false,
      "stateMutability": "view",
      "type": "function"
    },
    {
      "inputs": [],
      "payable": false,
      "stateMutability": "nonpayable",
      "type": "constructor"
    },
    {
      "constant": false,
      "inputs": [
        {
          "name": "id",
          "type": "uint256"
        },
        {
          "name": "ipfshash",
          "type": "string"
        }
      ],
      "name": "storeDocumentHash",
      "outputs": [],
      "payable": false,
      "stateMutability": "nonpayable",
      "type": "function"
    },
    {
      "constant": true,
      "inputs": [
        {
          "name": "id",
          "type": "uint256"
        }
      ],
      "name": "getEmployeeDocuments",
      "outputs": [
        {
          "name": "",
          "type": "uint256"
        },
        {
          "name": "",
          "type": "string"
        }
      ],
      "payable": false,
      "stateMutability": "view",
      "type": "function"
    }
  ],
  "bytecode": "0x608060405234801561001057600080fd5b5061002a6001610048640100000000026401000000009004565b6100436002610048640100000000026401000000009004565b610151565b604080519081016040528082815260200160206040519081016040528060008152508152506000808381526020019081526020016000206000820151816000015560208201518160010190805190602001906100a59291906100ac565b5090505050565b828054600181600116156101000203166002900490600052602060002090601f016020900481019282601f106100ed57805160ff191683800117855561011b565b8280016001018555821561011b579182015b8281111561011a5782518255916020019190600101906100ff565b5b509050610128919061012c565b5090565b61014e91905b8082111561014a576000816000905550600101610132565b5090565b90565b6104b8806101606000396000f300608060405260043610610057576000357c0100000000000000000000000000000000000000000000000000000000900463ffffffff168063151c259f1461005c5780632d1f67f814610109578063938ec5021461017c575b600080fd5b34801561006857600080fd5b5061008760048036038101908080359060200190929190505050610229565b6040518083815260200180602001828103825283818151815260200191508051906020019080838360005b838110156100cd5780820151818401526020810190506100b2565b50505050905090810190601f1680156100fa5780820380516001836020036101000a031916815260200191505b50935050505060405180910390f35b34801561011557600080fd5b5061017a60048036038101908080359060200190929190803590602001908201803590602001908080601f01602080910402602001604051908101604052809392919081815260200183838082843782019150505050505091929192905050506102e5565b005b34801561018857600080fd5b506101a760048036038101908080359060200190929190505050610313565b6040518083815260200180602001828103825283818151815260200191508051906020019080838360005b838110156101ed5780820151818401526020810190506101d2565b50505050905090810190601f16801561021a5780820380516001836020036101000a031916815260200191505b50935050505060405180910390f35b6000602052806000526040600020600091509050806000015490806001018054600181600116156101000203166002900480601f0160208091040260200160405190810160405280929190818152602001828054600181600116156101000203166002900480156102db5780601f106102b0576101008083540402835291602001916102db565b820191906000526020600020905b8154815290600101906020018083116102be57829003601f168201915b5050505050905082565b80600080848152602001908152602001600020600101908051906020019061030e9291906103e7565b505050565b6000606060008084815260200190815260200160002060000154600080858152602001908152602001600020600101808054600181600116156101000203166002900480601f0160208091040260200160405190810160405280929190818152602001828054600181600116156101000203166002900480156103d75780601f106103ac576101008083540402835291602001916103d7565b820191906000526020600020905b8154815290600101906020018083116103ba57829003601f168201915b5050505050905091509150915091565b828054600181600116156101000203166002900490600052602060002090601f016020900481019282601f1061042857805160ff1916838001178555610456565b82800160010185558215610456579182015b8281111561045557825182559160200191906001019061043a565b5b5090506104639190610467565b5090565b61048991905b8082111561048557600081600090555060010161046d565b5090565b905600a165627a7a7230582013d48e116c2c9bac695daf565c511fa31f11eaf50866a8b727f531af925e5e540029",
  "source": "pragma solidity 0.4.23;\r\n\r\n\r\ncontract DocumentStorage {\r\n\r\n\r\n    struct Employee {\r\n        uint id;\r\n        string ipfshash;\r\n    }\r\n\r\n\r\n    mapping(uint=>Employee) public Employees;\r\n\r\n    function DocumentStorage () public{\r\n    addEmployee(1);\r\n    addEmployee(2);\r\n    }\r\n\r\n    function addEmployee(uint id) private{\r\n     Employees[id]=Employee(id,\"\");\r\n    }\r\n\r\n\r\n    function storeDocumentHash(uint id,string ipfshash) public {\r\n     Employees[id].ipfshash=ipfshash;\r\n    }\r\n\r\n    function getEmployeeDocuments(uint id) public constant returns(uint, string) {\r\n        return (Employees[id].id, Employees[id].ipfshash);\r\n    }\r\n\r\n}",
  "sourcePath": "D:\\BlockChain\\ipfs_image_uploader\\blockchain\\contracts\\DocumentStorage.sol",
  "compiler": {
    "name": "solc",
    "version": "0.4.23+commit.124ca40d.Emscripten.clang"
  },
  "schemaVersion": "2.0.0",
  "updatedAt": "2018-07-04T07:23:31.955Z"
}